:060000000A128A11FC2F18
:100F2A0083160313880183120313880108000A1227
:100F3A008A1195270A128A11013083120313880035
:100F4A000030F3000030F2000030F1000030F00011
:100F5A000130F007003003180130F10700300318A0
:100F6A000130F207003003180130F3077308031D3C
:100F7A00CD2F7208031DCD2FC3307102031DC92F57
:100F8A0050307002031DC92F031CCC2FCD2FAD2F5B
:100F9A008312031388010030F3000030F20000309E
:100FAA00F1000030F0000130F00700300318013082
:100FBA00F107003003180130F2070030031801303E
:100FCA00F3077308031DF82F7208031DF82FC330A7
:100FDA007102031DF42F50307002031DF42F031CFD
:100FEA00F72FF82FD82FA12F0A128A110028830170
:060FFA000A128A119C2F6F
:08400000FF3FFF3FFF3FFF3FC0
:02400E00FB3F76
:00000001FF
